:1000000029C000006BC5000092C50000B9C5000002
:100010003CC000003AC0000023C70000F8C6000042
:1000200034C00000CBC6000030C00000FBC500009B
:10003000D0C5000067C7000028C000003AC7000014
:1000400024C0000022C0000020C000001EC000002C
:100050001CC0000011241FBECFE5D8E0DEBFCDBF1D
:1000600010E0A0E6B0E0EEE0F0E102C005900D92F5
:10007000A43BB107D9F720E0A4EBB0E001C01D928A
:10008000A33EB207E1F7EAD2C0C7BACF2091600021
:1000900030916100293031056CF42F5F3F4F309370
:1000A000610020936000220F331FF901E153FF4FDD
:1000B00091838083089580916000909161009923DD
:1000C0007CF09C0121503109309361002093600045
:1000D000880F991FFC01E153FF4F808191810895A2
:1000E00082E090E008958091B700811113C0A8D2FA
:1000F00084E690E090D261E080E1A1D360E082E10B
:100100009ED360E081E19BD38BE890E0BFDF81E08C
:100110008093B70008958091B600811113C090D2EA
:100120008BE690E078D260E080E189D361E082E103
:1001300086D360E081E183D383EA90E0A7DF81E0AA
:100140008093B60008958091B500811113C078D2D4
:1001500081E790E060D260E080E171D360E082E10D
:100160006ED361E081E16BD383E790E08FDF81E0C4
:100170008093B50008958091B40081111BC09BDF6E
:1001800083E790E083DF61E080E159D361E081E1C2
:1001900056D361E082E153D31092B8006BED70E06A
:1001A00088EC90E0D8D681E08093B40049D28EE705
:1001B00090E031C2089561E082E074D16091B800AE
:1001C00070E080E090E0AFD18091B400813031F5F3
:1001D00080E1BAD381E1B8D382E1B6D38091B8008F
:1001E0008F5F8093B800883009F077C01092B80014
:1001F0006BED70E080E991E0AED65DDF9093CE00CC
:100200008093CD001092B40060E080E118D360E0EC
:1002100081E115D360E082E112C308958091CD00A1
:100220009091CE0083579040C9F48091B8008B30F4
:1002300089F41092B8003FDF9093CE008093CD00F8
:100240001092B7001092B6001092B50060E080E105
:10025000F6C208958F5F8093B80008958091CD0015
:100260009091CE008B589040C9F48091B8008031B5
:1002700089F41092B8001FDF9093CE008093CD00D8
:100280001092B7001092B6001092B50060E082E1C3
:10029000D6C208958F5F8093B80008958091CD00F5
:1002A0009091CE00835A9040C1F48091B80086307E
:1002B00089F41092B800FFDE9093CE008093CD00B9
:1002C0001092B7001092B6001092B50060E081E184
:1002D000B6C208958F5F8093B800089560E080E112
:1002E000AED260E082E1ABD260E081E1A8D26BEDFA
:1002F00070E080E991E02FD662E080E062D380E098
:10030000C6D36BEB70E080E0D4D383E790E09093AA
:10031000CE008093CD000895E091CD00F091CE0005
:1003200009950895CF93C82F61E081E088D26C2FA2
:10033000661F6627661F86E082D2C6FB662760F9C5
:1003400085E07DD2C5FB662760F984E078D2C4FBE6
:10035000662760F983E073D261E082E070D28FECAF
:1003600097E00197F1F700C0000060E082E067D2FB
:100370008FEC97E00197F1F700C00000C3FB662700
:1003800060F986E05CD2C2FB662760F985E057D24F
:10039000C1FB662760F984E052D26C2F617083E064
:1003A0004ED261E082E04BD28FEC97E00197F1F7FB
:1003B00000C0000060E082E042D28FEC97E001973D
:1003C000F1F700C00000CF910895CF93C82F60E0EF
:1003D00081E035D26C2F661F6627661F86E02FD21C
:1003E000C6FB662760F985E02AD2C5FB662760F95F
:1003F00084E025D2C4FB662760F983E020D261E067
:1004000082E01DD28FEC97E00197F1F700C0000069
:1004100060E082E014D28FEC97E00197F1F700C022
:100420000000C3FB662760F986E009D2C2FB66279D
:1004300060F985E004D2C1FB662760F984E0FFD152
:100440006C2F617083E0FBD161E082E0F8D18FEC2A
:1004500097E00197F1F700C0000060E082E0EFD183
:100460008FEC97E00197F1F700C00000CF9108955D
:100470002FE788E391E0215080409040E1F700C0F1
:10048000000082E0A2DF88E2A0DF8CE09EDF81E056
:100490009CDF8FEC97E00197F1F700C0000086E049
:1004A00094CF0895CF93DF93D82FCFEFC60F81302D
:1004B00031F4C03190F48C2F806887DF08C082301F
:1004C00071F4C03170F48C2F8068805C7EDFC09343
:1004D0006300D093620080E005C083E003C083E046
:1004E00001C083E0DF91CF91089580916300813155
:1004F00068F080916200813021F461E082E0D2CF27
:100500000895823019F461E081E0CCCF0895CF9353
:10051000C82FEBDF8C2F06DF809163008F5F809305
:100520006300CF9108954F925F926F927F92AF9246
:10053000BF92CF92DF92EF92FF921F93CF93DF9300
:10054000CDB7DEB760970FB6F894DEBF0FBECDBF54
:100550006B017C01611571058105910519F480E33A
:10056000D6DF45C099237CF4F094E094D094C094F5
:10057000C11CD11CE11CF11C8DE2C9DFC114D104E6
:10058000E104F104A1F110E00F2EFAE04F2E512CFE
:10059000612C712CF02D01C0182FAA24A394B12C2A
:1005A000AC0EBD1EA10EB11CC701B601A301920184
:1005B00010D5605DF5016083C22ED32EE42EF52E9A
:1005C00081E0810FC114D104E104F10429F7F12E77
:1005D00011236CF0E1E0F0E0EC0FFD1FEF0DF11DD9
:1005E000F7FCFA95808193DFFA94FF209CF76096E0
:1005F0000FB6F894DEBF0FBECDBFDF91CF911F9134
:10060000FF90EF90DF90CF90BF90AF907F906F9072
:100610005F904F9008950F931F93CF93FC018081BB
:10062000882351F08F01C0E072DFCF5FF801EC0F3B
:10063000F11D80818111F8CFCF911F910F91089505
:1006400081E0C3DE8FEC97E00197F1F700C0000076
:1006500081E08093630080936200089508D008DFF2
:100660003DDE8AE890E0D7DF789456DEFECFE4E9FD
:10067000F0E080E041E050E09191282F269526950A
:100680002695382F3770913009F449C020F0923008
:1006900009F489C0CFC02130A9F028F0223009F137
:1006A000233071F1C7C09AB3BA0102C0660F771F39
:1006B0003A95E2F79B01962B9ABB9BB32095292391
:1006C0002BBBB8C097B3BA0102C0660F771F3A952B
:1006D000E2F79B01962B97BB98B32095292328BB63
:1006E000A9C094B3BA0102C0660F771F3A95E2F72A
:1006F0009B01962B94BB95B32095292325BB9AC0CB
:1007000091B3BA0102C0660F771F3A95E2F79B01D9
:10071000962B91BB92B32095292322BB8BC021300D
:10072000A9F028F0223009F1233071F183C09AB387
:10073000BA0102C0660F771F3A95E2F79B01209538
:1007400092239ABB9BB329232BBB74C097B3BA01E6
:1007500002C0660F771F3A95E2F79B01209592231E
:1007600097BB98B3292328BB65C094B3BA0102C0D4
:10077000660F771F3A95E2F79B012095922394BB71
:1007800095B3292325BB56C091B3BA0102C0660FA9
:10079000771F3A95E2F79B012095922391BB92B384
:1007A000292322BB47C02130B1F028F0223019F1B3
:1007B000233089F13FC09AB3BA0102C0660F771F98
:1007C0003A95E2F79B01362F309593239ABB9BB362
:1007D000292B2BBB2FC097B3BA0102C0660F771F1E
:1007E0003A95E2F79B01362F3095932397BB98B348
:1007F000292B28BB1FC094B3BA0102C0660F771F14
:100800003A95E2F79B01362F3095932394BB95B32D
:10081000292B25BB0FC091B3BA0102C0660F771F09
:100820003A95E2F79B01362F3095932391BB92B313
:10083000292B22BB8F5F803209F01ECF0895982F9D
:1008400096959695969587706130E1F5913099F07F
:1008500028F09230E9F0933041F108954BB321E054
:1008600030E0B90102C0660F771F8A95E2F7CB012D
:10087000842B8BBB089548B321E030E0B90102C05E
:10088000660F771F8A95E2F7CB01842B88BB08950A
:1008900045B321E030E0B90102C0660F771F8A95A9
:1008A000E2F7CB01842B85BB089542B321E030E011
:1008B000B90102C0660F771F8A95E2F7CB01842B3E
:1008C00082BB089561113FC09130A1F028F09230B1
:1008D000F9F0933059F108954BB321E030E0B901BC
:1008E00002C0660F771F8A95E2F7CB0180958423BB
:1008F0008BBB089548B321E030E0B90102C0660F18
:10090000771F8A95E2F7CB018095842388BB0895F1
:1009100045B321E030E0B90102C0660F771F8A9528
:10092000E2F7CB018095842385BB089542B321E093
:1009300030E0B90102C0660F771F8A95E2F7CB015C
:100940008095842382BB0895883068F44BB321E0FE
:1009500030E0B90102C0660F771F8A95E2F7CB013C
:1009600084278BBB0895803170F448B3885021E010
:1009700030E0B90102C0660F771F8A95E2F7CB011C
:10098000842788BB0895883170F445B3805121E0F5
:1009900030E0B90102C0660F771F8A95E2F7CB01FC
:1009A000842785BB089542B3885121E030E0B90126
:1009B00002C0660F771F8A95E2F7CB01842782BBBE
:1009C0000895813021F5613069F028F0623089F0B6
:1009D0006330B1F0089585B78B7F85BF85B7877F7A
:1009E00085BF089585B7846085BF85B7877F85BF3C
:1009F000089585B78B7F85BF85B7886085BF0895CB
:100A000085B7846085BF85B7886085BF08958111EB
:100A100024C0613069F028F0623089F06330B1F0B1
:100A2000089585B78E7F85BF85B78D7F85BF089573
:100A300085B7816085BF85B78D7F85BF089585B7F0
:100A40008E7F85BF85B7826085BF089585B7816039
:100A500085BF85B7826085BF08958230B9F4613063
:100A600051F028F0623059F0633069F0089584B78E
:100A7000806484BF089584B7806484BF089584B778
:100A80008F7B84BF089584B7806484BF08958130CC
:100A900021F48BB780688BBF0895811104C08BB798
:100AA00080648BBF0895823019F48BB780628BBF4E
:100AB0000895813021F040F0823059F0089570930C
:100AC000BC006093BB0008957093BE006093BD00AE
:100AD00008957093BA006093B90008951F920F9221
:100AE0000FB60F9211242F933F934F935F936F9301
:100AF0007F938F939F93AF93BF93EF93FF93E09177
:100B0000BD00F091BE00309709F00995FF91EF917B
:100B1000BF91AF919F918F917F916F915F914F9115
:100B20003F912F910F900FBE0F901F9018951F921D
:100B30000F920FB60F9211242F933F934F935F9311
:100B40006F937F938F939F93AF93BF93EF93FF9395
:100B5000E091BB00F091BC00309709F00995FF913E
:100B6000EF91BF91AF919F918F917F916F915F9125
:100B70004F913F912F910F900FBE0F901F9018959E
:100B80001F920F920FB60F9211242F933F934F9302
:100B90005F936F937F938F939F93AF93BF93EF93E5
:100BA000FF93E091B900F091BA00309709F00995F0
:100BB000FF91EF91BF91AF919F918F917F916F9135
:100BC0005F914F913F912F910F900FBE0F901F900B
:100BD00018951F920F920FB60F9211242F933F93E7
:100BE0004F935F936F937F938F939F93AF93BF9335
:100BF000EF93FF93E091BF00F091C000309709F0B0
:100C00000995FF91EF91BF91AF919F918F917F9146
:100C10006F915F914F913F912F910F900FBE0F9069
:100C20001F9018951F920F920FB60F9211242F93B9
:100C30003F934F935F936F937F938F939F93AF9364
:100C4000BF93EF93FF93E091C700F091C8003097F6
:100C500009F00995FF91EF91BF91AF919F918F910D
:100C60007F916F915F914F913F912F910F900FBEA8
:100C70000F901F901895823029F128F4882341F0B5
:100C8000813099F045C0833051F18430A9F140C0E2
:100C90008FB58E7F8FBD8FB58D7F8FBD8EB5877FD2
:100CA0008EBD8EB58F7E8EBD33C08FB58E7F8FBDCE
:100CB0008FB58D7F8FBD8EB588608EBD8EB58061FE
:100CC0008EBD26C08FB58E7F8FBD8FB58D7F8FBDBA
:100CD0008EB588608EBD8EB58F7E8EBD19C08FB5E6
:100CE0008E7F8FBD8FB582608FBD8EB588608EBDC3
:100CF0008EB580618EBD0CC08FB581608FBD8FB504
:100D000082608FBD8EB588608EBD8EB580618EBDD0
:100D1000413069F028F0423089F04330B1F01BC017
:100D20008FB58F7B8FBD8FB58F778FBD14C08FB57B
:100D300080648FBD8FB58F778FBD0DC08FB58F7BD2
:100D40008FBD8FB580688FBD06C08FB580648FBDA5
:100D50008FB580688FBD213069F028F0223089F08E
:100D60002330B1F01BC08FB58F7E8FBD8FB58F7DC7
:100D70008FBD14C08FB580618FBD8FB58F7D8FBD46
:100D80000DC08FB58F7E8FBD8FB580628FBD06C0C1
:100D90008FB580618FBD8FB580628FBD8EB5887F26
:100DA0008EBD8EB5682B6EBD089589B7806189BFF1
:100DB00008959093C4008093C30008951F920F92EA
:100DC0000FB60F9211242F933F934F935F936F931E
:100DD0007F938F939F93AF93BF93EF93FF93E09194
:100DE000C500F091C600309709F00995FF91EF9189
:100DF000BF91AF919F918F917F916F915F914F9133
:100E00003F912F910F900FBE0F901F9018951F923A
:100E10000F920FB60F9211242F933F934F935F932E
:100E20006F937F938F939F93AF93BF93EF93FF93B2
:100E3000E091C300F091C400309709F00995FF914B
:100E4000EF91BF91AF919F918F917F916F915F9142
:100E50004F913F912F910F900FBE0F901F901895BB
:100E60001F920F920FB60F9211242F933F934F931F
:100E70005F936F937F938F939F93AF93BF93EF9302
:100E8000FF93E091C100F091C200309709F00995FD
:100E9000FF91EF91BF91AF919F918F917F916F9152
:100EA0005F914F913F912F910F900FBE0F901F9028
:100EB00018951F920F920FB60F9211242F933F9304
:100EC0004F935F936F937F938F939F93AF93BF9352
:100ED000EF93FF93E091CB00F091CC00309709F0B5
:100EE0000995FF91EF91BF91AF919F918F917F9164
:100EF0006F915F914F913F912F910F900FBE0F9087
:100F00001F9018951F920F920FB60F9211242F93D6
:100F10003F934F935F936F937F938F939F93AF9381
:100F2000BF93EF93FF93E091C900F091CA0030970F
:100F300009F00995FF91EF91BF91AF919F918F912A
:100F40007F916F915F914F913F912F910F900FBEC5
:100F50000F901F9018950F931F93CF93DF938C01E1
:100F6000EB0120E040E064E082E085DE2FE1209F9D
:100F7000C001219F900D112401979BBD8ABDCE0118
:100F800018DF13DFDF91CF911F910F910895A1E238
:100F90001A2EAA1BBB1BFD010DC0AA1FBB1FEE1FF3
:100FA000FF1FA217B307E407F50720F0A21BB30B3E
:100FB000E40BF50B661F771F881F991F1A9469F7BA
:100FC00060957095809590959B01AC01BD01CF0116
:100FD0000895052E97FB16F400940FD057FD05D009
:100FE000D6DF07FC02D046F408C0509540953095F6
:100FF00021953F4F4F4F5F4F089590958095709585
:0E10000061957F4F8F4F9F4F0895F894FFCF5B
:10100E00FFFF010153544F503A2000474F2D2D2022
:10101E000052454144595F325F53544F5000454D85
:10102E00455247454E43592E2E00547261666669ED
:10103E0063202000010000000000010100000000FC
:10104E000101000100000002020000000000020089
:04105E00000000008E
:00000001FF
