S01400005461736B735F547269636B732E737265633B
S113000029C0000053C400007AC40000A1C4000049
S11300103CC000003AC000000BC60000E0C5000070
S113002034C00000B3C5000030C00000E3C40000C9
S1130030B8C400004FC6000028C0000022C600005B
S113004024C0000022C0000020C000001EC0000028
S11300501CC0000011241FBECFE5D8E0DEBFCDBF19
S113006010E0A0E6B0E0E4EEFDE002C005900D92E1
S1130070A238B107D9F720E0A2E8B0E001C01D9290
S1130080A23AB207E1F729D2ABC6BACF90E0FC019D
S1130090E657FF4F2081222329F0FC01E657FF4F4A
S11300A021502083089581E190D38093890082E1D7
S11300B08CD38093880083E188D38093870084E184
S11300C084D3809386009091890091110CC0909103
S11300D08500913061F4EAE8F0E090819F5F9083BD
S11300E01092850004C0913011F490938500909192
S11300F0880091110CC090918400913061F4EAE879
S1130100F0E091819F5F91831092840004C091304C
S113011011F4909384009091870091110CC09091F8
S11301208300913061F4EAE8F0E092819F5F92836A
S11301301092830004C0913011F4909383008111D4
S11301400CC080918200813061F4EAE8F0E08381A0
S11301508F5F8383109282000895813011F480931D
S11301608200089563E570E082E390E0DCC50895C1
S1130170CF93DF9380918A00882351F0CAE8D0E0BE
S113018089E157D380E082DF88818111F9CF29C0CA
S113019080918B00882351F0CAE8D0E08AE149D3EA
S11301A081E074DF89818111F9CF1BC080918C00BB
S11301B0882351F0CAE8D0E08BE13BD382E066DFCC
S11301C08A818111F9CF0DC080918D00882349F077
S11301D0CAE8D0E08CE12DD383E058DF8B81811114
S11301E0F9CFDF91CF910895CF93C82F61E081E0DB
S11301F067D26C2F661F6627661F86E061D2C6FB36
S1130200662760F985E05CD2C5FB662760F984E067
S113021057D2C4FB662760F983E052D261E082E0E2
S11302204FD28FEC97E00197F1F700C0000060E037
S113023082E046D28FEC97E00197F1F700C000000E
S1130240C3FB662760F986E03BD2C2FB662760F9F0
S113025085E036D2C1FB662760F984E031D26C2F89
S1130260617083E02DD261E082E02AD28FEC97E0C6
S11302700197F1F700C0000060E082E021D28FEC2A
S113028097E00197F1F700C00000CF910895CF9354
S1130290C82F60E081E014D26C2F661F6627661FAA
S11302A086E00ED2C6FB662760F985E009D2C5FB5D
S11302B0662760F984E004D2C4FB662760F983E012
S11302C0FFD161E082E0FCD18FEC97E00197F1F778
S11302D000C0000060E082E0F3D18FEC97E001976A
S11302E0F1F700C00000C3FB662760F986E0E8D19F
S11302F0C2FB662760F985E0E3D1C1FB662760F99C
S113030084E0DED16C2F617083E0DAD161E082E0B9
S1130310D7D18FEC97E00197F1F700C0000060E0BF
S113032082E0CED18FEC97E00197F1F700C0000096
S1130330CF9108952FE788E391E0215080409040C9
S1130340E1F700C0000082E0A2DF88E2A0DF8CE0D9
S11303509EDF81E09CDF8FEC97E00197F1F700C00E
S1130360000086E094CF0895CF93DF93D82FCFEF8A
S1130370C60F813031F4C03190F48C2F806887DF50
S113038008C0823071F4C03170F48C2F8068805CB6
S11303907EDFC0936100D093600080E005C083E0FD
S11303A003C083E001C083E0DF91CF910895809181
S11303B06100813168F080916000813021F461E056
S11303C082E0D2CF0895823019F461E081E0CCCF8D
S11303D00895CF93C82FEBDF8C2F06DF8091610047
S11303E08F5F80936100CF9108954F925F926F92D7
S11303F07F92AF92BF92CF92DF92EF92FF921F93C0
S1130400CF93DF93CDB7DEB760970FB6F894DEBF16
S11304100FBECDBF6B017C0161157105810591058E
S113042019F480E3D6DF45C099237CF4F094E0947A
S1130430D094C094C11CD11CE11CF11C8DE2C9DF15
S1130440C114D104E104F104A1F110E00F2EFAE08B
S11304504F2E512C612C712CF02D01C0182FAA2481
S1130460A394B12CAC0EBD1EA10EB11CC701B601E4
S1130470A301920199D4605DF5016083C22ED32E4D
S1130480E42EF52E81E0810FC114D104E104F104BE
S113049029F7F12E11236CF0E1E0F0E0EC0FFD1FE1
S11304A0EF0DF11DF7FCFA95808193DFFA94FF209C
S11304B09CF760960FB6F894DEBF0FBECDBFDF91F8
S11304C0CF911F91FF90EF90DF90CF90BF90AF90AE
S11304D07F906F905F904F9008950AD02BDF65E076
S11304E070E080E090E081DF78943CDE41DEFECF76
S11304F0E2E6F0E080E041E050E09191282F26957B
S113050026952695382F3770913009F449C020F08C
S1130510923009F489C0CFC02130A9F028F02230EC
S113052009F1233071F1C7C09AB3BA0102C0660F52
S1130530771F3A95E2F79B01962B9ABB9BB32095C4
S113054029232BBBB8C097B3BA0102C0660F771F2B
S11305503A95E2F79B01962B97BB98B320952923F4
S113056028BBA9C094B3BA0102C0660F771F3A959D
S1130570E2F79B01962B94BB95B32095292325BBC9
S11305809AC091B3BA0102C0660F771F3A95E2F799
S11305909B01962B91BB92B32095292322BB8BC040
S11305A02130A9F028F0223009F1233071F183C001
S11305B09AB3BA0102C0660F771F3A95E2F79B011E
S11305C0209592239ABB9BB329232BBB74C097B36A
S11305D0BA0102C0660F771F3A95E2F79B01209596
S11305E0922397BB98B3292328BB65C094B3BA015F
S11305F002C0660F771F3A95E2F79B01209592237C
S113060094BB95B3292325BB56C091B3BA0102C04C
S1130610660F771F3A95E2F79B012095922391BBD1
S113062092B3292322BB47C02130B1F028F02230F5
S113063019F1233089F13FC09AB3BA0102C0660FA1
S1130640771F3A95E2F79B01362F309593239ABB97
S11306509BB3292B2BBB2FC097B3BA0102C0660FE3
S1130660771F3A95E2F79B01362F3095932397BB7A
S113067098B3292B28BB1FC094B3BA0102C0660FDC
S1130680771F3A95E2F79B01362F3095932394BB5D
S113069095B3292B25BB0FC091B3BA0102C0660FD5
S11306A0771F3A95E2F79B01362F3095932391BB40
S11306B092B3292B22BB8F5F803209F01ECF08959D
S11306C0982F96959695969587706130E1F59130BF
S11306D099F028F09230E9F0933041F108954BB34A
S11306E021E030E0B90102C0660F771F8A95E2F776
S11306F0CB01842B8BBB089548B321E030E0B901D2
S113070002C0660F771F8A95E2F7CB01842B88BB62
S1130710089545B321E030E0B90102C0660F771FA8
S11307208A95E2F7CB01842B85BB089542B321E07F
S113073030E0B90102C0660F771F8A95E2F7CB015A
S1130740842B82BB089561113FC09130A1F028F041
S11307509230F9F0933059F108954BB321E030E031
S1130760B90102C0660F771F8A95E2F7CB01809525
S113077084238BBB089548B321E030E0B90102C063
S1130780660F771F8A95E2F7CB018095842388BB97
S1130790089545B321E030E0B90102C0660F771F28
S11307A08A95E2F7CB018095842385BB089542B3F3
S11307B021E030E0B90102C0660F771F8A95E2F7A5
S11307C0CB018095842382BB0895982F96959695A6
S11307D09695482F477091110AC099B3892F90E0DC
S11307E002C0959587954A95E2F7817008959130F6
S11307F051F426B330E0C90102C0959587954A9516
S1130800E2F781700895923051F423B330E0C901C6
S113081002C0959587954A95E2F78170089590B343
S1130820892F90E002C0959587954A95E2F78170EB
S11308300895883068F44BB321E030E0B90102C078
S1130840660F771F8A95E2F7CB0184278BBB089547
S1130850803170F448B3885021E030E0B90102C01F
S1130860660F771F8A95E2F7CB01842788BB08952A
S1130870883170F445B3805121E030E0B90102C001
S1130880660F771F8A95E2F7CB01842785BB08950D
S113089042B3885121E030E0B90102C0660F771FEE
S11308A08A95E2F7CB01842782BB08951F920F92A9
S11308B00FB60F9211242F933F934F935F936F932F
S11308C07F938F939F93AF93BF93EF93FF93E091A5
S11308D09200F0919300309709F00995FF91EF9100
S11308E0BF91AF919F918F917F916F915F914F9144
S11308F03F912F910F900FBE0F901F9018951F924C
S11309000F920FB60F9211242F933F934F935F933F
S11309106F937F938F939F93AF93BF93EF93FF93C3
S1130920E0919000F0919100309709F00995FF91C2
S1130930EF91BF91AF919F918F917F916F915F9153
S11309404F913F912F910F900FBE0F901F901895CC
S11309501F920F920FB60F9211242F933F934F9330
S11309605F936F937F938F939F93AF93BF93EF9313
S1130970FF93E0918E00F0918F00309709F0099574
S1130980FF91EF91BF91AF919F918F917F916F9163
S11309905F914F913F912F910F900FBE0F901F9039
S11309A018951F920F920FB60F9211242F933F9315
S11309B04F935F936F937F938F939F93AF93BF9363
S11309C0EF93FF93E0919400F0919500309709F034
S11309D00995FF91EF91BF91AF919F918F917F9175
S11309E06F915F914F913F912F910F900FBE0F9098
S11309F01F9018951F920F920FB60F9211242F93E8
S1130A003F934F935F936F937F938F939F93AF9392
S1130A10BF93EF93FF93E0919C00F0919D0030977A
S1130A2009F00995FF91EF91BF91AF919F918F913B
S1130A307F916F915F914F913F912F910F900FBED6
S1130A400F901F901895823029F128F4882341F0E3
S1130A50813099F045C0833051F18430A9F140C010
S1130A608FB58E7F8FBD8FB58D7F8FBD8EB5877F00
S1130A708EBD8EB58F7E8EBD33C08FB58E7F8FBDFC
S1130A808FB58D7F8FBD8EB588608EBD8EB580612C
S1130A908EBD26C08FB58E7F8FBD8FB58D7F8FBDE8
S1130AA08EB588608EBD8EB58F7E8EBD19C08FB514
S1130AB08E7F8FBD8FB582608FBD8EB588608EBDF1
S1130AC08EB580618EBD0CC08FB581608FBD8FB532
S1130AD082608FBD8EB588608EBD8EB580618EBDFF
S1130AE0413069F028F0423089F04330B1F01BC046
S1130AF08FB58F7B8FBD8FB58F778FBD14C08FB5AA
S1130B0080648FBD8FB58F778FBD0DC08FB58F7B00
S1130B108FBD8FB580688FBD06C08FB580648FBDD3
S1130B208FB580688FBD213069F028F0223089F0BC
S1130B302330B1F01BC08FB58F7E8FBD8FB58F7DF5
S1130B408FBD14C08FB580618FBD8FB58F7D8FBD74
S1130B500DC08FB58F7E8FBD8FB580628FBD06C0EF
S1130B608FB580618FBD8FB580628FBD8EB5887F54
S1130B708EBD8EB5682B6EBD089589B7806189BF1F
S1130B800895909399008093980008951F920F926E
S1130B900FB60F9211242F933F934F935F936F934C
S1130BA07F938F939F93AF93BF93EF93FF93E091C2
S1130BB09A00F0919B00309709F00995FF91EF910D
S1130BC0BF91AF919F918F917F916F915F914F9161
S1130BD03F912F910F900FBE0F901F9018951F9269
S1130BE00F920FB60F9211242F933F934F935F935D
S1130BF06F937F938F939F93AF93BF93EF93FF93E1
S1130C00E0919800F0919900309709F00995FF91CF
S1130C10EF91BF91AF919F918F917F916F915F9170
S1130C204F913F912F910F900FBE0F901F901895E9
S1130C301F920F920FB60F9211242F933F934F934D
S1130C405F936F937F938F939F93AF93BF93EF9330
S1130C50FF93E0919600F0919700309709F0099581
S1130C60FF91EF91BF91AF919F918F917F916F9180
S1130C705F914F913F912F910F900FBE0F901F9056
S1130C8018951F920F920FB60F9211242F933F9332
S1130C904F935F936F937F938F939F93AF93BF9380
S1130CA0EF93FF93E091A000F091A100309709F039
S1130CB00995FF91EF91BF91AF919F918F917F9192
S1130CC06F915F914F913F912F910F900FBE0F90B5
S1130CD01F9018951F920F920FB60F9211242F9305
S1130CE03F934F935F936F937F938F939F93AF93B0
S1130CF0BF93EF93FF93E0919E00F0919F00309794
S1130D0009F00995FF91EF91BF91AF919F918F9158
S1130D107F916F915F914F913F912F910F900FBEF3
S1130D200F901F9018950F931F93CF93DF938C010F
S1130D30EB0120E040E062E082E085DE28EE33E073
S1130D40029FC001039F900D129F900D11240197E3
S1130D509BBD8ABDCE0115DF10DFDF91CF911F91BE
S1130D600F910895A1E21A2EAA1BBB1BFD010DC011
S1130D70AA1FBB1FEE1FFF1FA217B307E407F50747
S1130D8020F0A21BB30BE40BF50B661F771F881F23
S1130D90991F1A9469F760957095809590959B01B9
S1130DA0AC01BD01CF010895052E97FB16F4009404
S1130DB00FD057FD05D0D6DF07FC02D046F408C09B
S1130DC050954095309521953F4F4F4F5F4F089573
S1130DD090958095709561957F4F8F4F9F4F0895A3
S1070DE0F894FFCFB1
S1130DE401010100000000000101000000000101F4
S1130DF400010002020202000000000000000000E2
S1050E040000E8
S9030000FC
